:020000020000FC
:10000000594F55522043555252454E545F504F4917
:100010004E54533A2000529A539A66277727332733
:100020008827992740E317E61093C40010E0109347
:10003000C50008E10093C10041D070FD07C05A9A85
:100040007A954D990AC04C9931D0FACF5B9A7A953E
:100050004C9903C04D992AD0FACF639530FD2BD02F
:100060004C984D985A985B9801D0E6CF2F933F93C8
:100070004F9329E236E940E84A95F1F73A95E1F7DE
:100080002A95D1F74F913F912F9108952F933F9348
:100090004F9329E03EE145EE4A95F1F73A95E1F7B5
:1000A0002A95D1F74F913F912F9108955E9AEEDFF7
:1000B0005E9833600895631B33270895F0E0E0E015
:1000C0002591222321F00E9477000C9460006F9309
:1000D00014D01CD08093C60019D09093C6006F91A5
:1000E0002DE00E9477008827992708952AE00ED0F6
:1000F0002093C6002D30D1F308956A3024F4962F52
:10010000840F940F089583956A50F7CF1091C00023
:0601100015FFFCCF08956D
:00000001FF
