:020000020000FC
:10000000594F55522043555252454E545F504F4917
:100010004E54533A2000529A539A569A44275527E1
:100020006627772788279927DD240027112722278D
:1000300030E34C984D985A985B9817E61093C4009B
:1000400010E01093C50008E10093C100F0E0E0E08B
:1000500079D050FD11C05A9A68EC78EC89E15A9534
:100060004C991BC04D994BD06A95C9F77A95B9F751
:100070008A95A9F75A9800C05B9A68EC78EC89E1F8
:100080005A954D990AC04C993AD06A95C9F77A9514
:10009000B9F78A95A9F75B98DECF43953F9334E192
:1000A0004317A9F03F914C984D985A985B9883D08C
:1000B000CDCF594F55204C4F53542E2E2000F0E0F9
:1000C000E2EB40D05A985B9896D095D099CF594F93
:1000D0005520574F4E2E2E2E2000F0E0EEEC09D08A
:1000E00031D05A9A5B9A87D086D05A985B9883D041
:1000F00087CFD3943D2D3330E4F333E0089534E0DB
:10010000931307C090E0D39433E0D31691F230E319
:100110000895B9E2C6E9D0E800C0DA95F1F7CA95CA
:10012000E1F7BA95D1F75E9A939500C0B9E2C6E9B6
:10013000D0E800C0DA95F1F7CA95E1F7BA95D1F7A2
:100140005E98DDCF6627772788272591222321F027
:100150000E94C1000C94A500D31661F04F9317D0F4
:1001600025D06093C60022D07093C6001FD0809324
:10017000C6004F912DE00E94C100662777270895A1
:100180002AE014D02093C6002D30D1F308954436D0
:100190003CF44A3044F4842F630F730F830F0895A7
:1001A00063954456F4CF73954A50F1CF1091C00037
:1001B00015FFFCCF08952F933F934F9325E13BE428
:1001C0004FEB4A95F1F73A95E1F72A95D1F74F9120
:1001D0003F912F9108952F933F934F9329E03EE154
:1001E00045EE4A95F1F73A95E1F72A95D1F74F9107
:1001F0003F912F9108952F933F934F9322E53BE238
:1002000040E04A95F1F73A95E1F72A95D1F74F91F9
:060210003F912F910895BB
:00000001FF
